:020000040000FA
:060000000A128A11DC2F38
:100EDE0004344034803410342034831603138813C2
:100EEE000813881208128312031388130813881626
:100EFE0008120800902FC730F200852FF20B842FB6
:100F0E00882F892F0130F0020030031CF103F1020B
:100F1E00902F70087104031D952F962F822F972FF7
:100F2E0008000A128A1174270A128A119E2F303075
:100F3E00F3000030F4006430F5000030F6000A12C1
:100F4E008A11B0270A128A119E2F9E2F0A128A1119
:100F5E000028F801F901CC2F78080339203E8400CF
:100F6E00831300088312031388007608F1007508B6
:100F7E00F0000A128A1181270A128A110130F8072D
:100F8E000318F90A0030F907CC2F7908803AF700D8
:100F9E007408803A7702031DD62F73087802031C5B
:100FAE00D92FDA2FB32FDB2F08000A128A117027E0
:100FBE000A128A11A0000A128A1171270A128A11C6
:100FCE00A1000A128A1172270A128A11A2000A12AD
:100FDE008A1173270A128A11A3000A128A116F2727
:100FEE000A128A11FA00F801F90183010A128A1114
:020FFE00982F2A
:04400E00D4E0FFFFFC
:00000001FF
