:020000040000FA
:060000000A128A11DE2F36
:100D9C0004340434203410348034403440348034EF
:100DAC001034203483160313881308138812081286
:100DBC0083120313881308138816081208007E0880
:100DCC008A007F0882000A128A11E5260A128A110B
:100DDC008000840A04087D0603190034FF0A0319F5
:100DEC00FE0AE92E072FC730F200FC2EF20BFB2E69
:100DFC00FF2E002F0130F0020030031CF103F10232
:100E0C00072F70087104031D0C2F0D2FF92E0E2FB8
:100E1C000800FA01FB012B2F7A080339243E8400C9
:100E2C00831300088312031388007608F1007508F9
:100E3C00F0000A128A11F8260A128A110130FA07F8
:100E4C000318FB0A0030FB072B2F7B08803AF700B6
:100E5C007408803A7702031D352F73087A02031C3D
:100E6C00382F392F122F3A2F080083120313A801A1
:100E7C00A9015B2F8312031328080339203E840039
:100E8C008313000888007608F1007508F0000A1238
:100E9C008A11F8260A128A11013083120313A8074B
:100EAC000318A90A0030A9075B2F2908803AF7001C
:100EBC007408803A7702031D652F73082802031CFF
:100ECC00682F692F402F6A2F0800F801F901C62FEF
:100EDC00C62F0130F8000030F900C62F831203131F
:100EEC00081C792F7A2F7F2F0230F8000030F90080
:100EFC007F2F881C822F832FC62F0330F8000030E1
:100F0C00F900C62FC62F0A128A11D8260A128A1186
:100F1C003030F3000030F4006430F5000030F6009F
:100F2C000A128A110F270A128A1183120313881CC2
:100F3C00A02FA12FC62F0130F8000030F900C62FCA
:100F4C00C62F0A128A11D8260A128A113030F300E1
:100F5C000030F4006430F5000030F6000A128A11FB
:100F6C003B270A128A1183120313881CBE2FBF2F32
:100F7C00C62F0130F8000030F900C62FC62FC62F3F
:100F8C007908003A0319CB2FC62F7808003A0319B9
:100F9C006F2F013A0319742F033A0319892F013A61
:100FAC000319A72FC62FC62FC62F0A128A11002885
:100FBC0083132830FD000630FE00D030FF002030B7
:100FCC0084000A128A11E9260A128A110A128A115D
:100FDC00CE260A128A11FC000A128A11CF260A1296
:100FEC008A11FD00A801A901FA01FB0183010A1273
:040FFC008A116B2FBC
:04400E00D4E0FFFFFC
:00000001FF
